{
  "contractName": "PropertySale",
  "abi": [
    {
      "anonymous": false,
      "inputs": [
        {
          "indexed": false,
          "internalType": "string",
          "name": "name",
          "type": "string"
        },
        {
          "indexed": false,
          "internalType": "uint256",
          "name": "amount",
          "type": "uint256"
        },
        {
          "indexed": false,
          "internalType": "address",
          "name": "new_owner",
          "type": "address"
        }
      ],
      "name": "_propertySold",
      "type": "event"
    },
    {
      "anonymous": false,
      "inputs": [
        {
          "indexed": false,
          "internalType": "string",
          "name": "name",
          "type": "string"
        },
        {
          "indexed": false,
          "internalType": "string",
          "name": "location",
          "type": "string"
        },
        {
          "indexed": false,
          "internalType": "string",
          "name": "extraDetails",
          "type": "string"
        },
        {
          "indexed": false,
          "internalType": "uint32",
          "name": "landOrHouse",
          "type": "uint32"
        },
        {
          "indexed": false,
          "internalType": "uint32",
          "name": "rentOrSale",
          "type": "uint32"
        },
        {
          "indexed": false,
          "internalType": "uint256",
          "name": "price",
          "type": "uint256"
        }
      ],
      "name": "newProperty",
      "type": "event"
    },
    {
      "anonymous": false,
      "inputs": [
        {
          "indexed": false,
          "internalType": "uint256",
          "name": "id",
          "type": "uint256"
        },
        {
          "indexed": false,
          "internalType": "string",
          "name": "name",
          "type": "string"
        },
        {
          "indexed": false,
          "internalType": "string",
          "name": "work_address",
          "type": "string"
        },
        {
          "indexed": false,
          "internalType": "string",
          "name": "extra_detail",
          "type": "string"
        }
      ],
      "name": "newUser",
      "type": "event"
    },
    {
      "inputs": [
        {
          "internalType": "string",
          "name": "_name",
          "type": "string"
        },
        {
          "internalType": "string",
          "name": "_location",
          "type": "string"
        },
        {
          "internalType": "string",
          "name": "_extraDetails",
          "type": "string"
        },
        {
          "internalType": "uint32",
          "name": "_landOrHouse",
          "type": "uint32"
        },
        {
          "internalType": "uint32",
          "name": "_rentOrSale",
          "type": "uint32"
        },
        {
          "internalType": "uint256",
          "name": "_price",
          "type": "uint256"
        },
        {
          "internalType": "uint256",
          "name": "_propertyDeed",
          "type": "uint256"
        },
        {
          "internalType": "uint256",
          "name": "_user_id",
          "type": "uint256"
        }
      ],
      "name": "_addProperty",
      "outputs": [],
      "stateMutability": "nonpayable",
      "type": "function"
    },
    {
      "inputs": [
        {
          "internalType": "uint256",
          "name": "_propertyId",
          "type": "uint256"
        }
      ],
      "name": "_approveProperty",
      "outputs": [],
      "stateMutability": "nonpayable",
      "type": "function"
    },
    {
      "inputs": [
        {
          "internalType": "uint256",
          "name": "_userId",
          "type": "uint256"
        }
      ],
      "name": "_approveUser",
      "outputs": [],
      "stateMutability": "nonpayable",
      "type": "function"
    },
    {
      "inputs": [
        {
          "internalType": "string",
          "name": "_password",
          "type": "string"
        }
      ],
      "name": "_userLogin",
      "outputs": [
        {
          "internalType": "bool",
          "name": "",
          "type": "bool"
        },
        {
          "internalType": "string",
          "name": "",
          "type": "string"
        }
      ],
      "stateMutability": "view",
      "type": "function"
    },
    {
      "inputs": [],
      "name": "_viewProperties",
      "outputs": [],
      "stateMutability": "view",
      "type": "function"
    },
    {
      "inputs": [
        {
          "internalType": "uint256",
          "name": "_userId",
          "type": "uint256"
        }
      ],
      "name": "_viewUserProfile",
      "outputs": [],
      "stateMutability": "view",
      "type": "function"
    },
    {
      "inputs": [
        {
          "internalType": "string",
          "name": "_name",
          "type": "string"
        },
        {
          "internalType": "string",
          "name": "_work_address",
          "type": "string"
        },
        {
          "internalType": "string",
          "name": "_extra_detail",
          "type": "string"
        },
        {
          "internalType": "string",
          "name": "_passsword",
          "type": "string"
        },
        {
          "internalType": "uint256",
          "name": "_photo",
          "type": "uint256"
        }
      ],
      "name": "addUser",
      "outputs": [],
      "stateMutability": "nonpayable",
      "type": "function"
    },
    {
      "inputs": [
        {
          "internalType": "uint256",
          "name": "propertyId",
          "type": "uint256"
        }
      ],
      "name": "_buyProperty",
      "outputs": [
        {
          "internalType": "address",
          "name": "",
          "type": "address"
        },
        {
          "internalType": "string",
          "name": "",
          "type": "string"
        }
      ],
      "stateMutability": "payable",
      "type": "function"
    },
    {
      "inputs": [
        {
          "internalType": "uint256",
          "name": "propertyId",
          "type": "uint256"
        },
        {
          "internalType": "uint256",
          "name": "amount",
          "type": "uint256"
        },
        {
          "internalType": "address",
          "name": "_new_owner",
          "type": "address"
        }
      ],
      "name": "effectTransfer",
      "outputs": [],
      "stateMutability": "nonpayable",
      "type": "function"
    }
  ],
  "bytecode": "0x6080604052336000806101000a81548173ffffffffffffffffffffffffffffffffffffffff021916908373ffffffffffffffffffffffffffffffffffffffff160217905550611b97806100536000396000f3fe6080604052600436106100865760003560e01c80637df0c922116100595780637df0c9221461024c5780638624c35714610287578063b0b05ac714610361578063dbceeb4f146104d0578063ff41cbf61461050b57610086565b80631615da4f1461008b5780634df351a41461019557806353650b62146101d0578063679e47a914610235575b600080fd5b34801561009757600080fd5b5061010f600480360360208110156100ae57600080fd5b81019080803590602001906401000000008111156100cb57600080fd5b8201836020820111156100dd57600080fd5b803590602001918460018302840111640100000000831117156100ff57600080fd5b909192939192939050505061069a565b604051808315151515815260200180602001828103825283818151815260200191508051906020019080838360005b8381101561015957808201518184015260208101905061013e565b50505050905090810190601f1680156101865780820380516001836020036101000a031916815260200191505b50935050505060405180910390f35b3480156101a157600080fd5b506101ce600480360360208110156101b857600080fd5b81019080803590602001909291905050506107e2565b005b3480156101dc57600080fd5b50610233600480360360608110156101f357600080fd5b810190808035906020019092919080359060200190929190803573ffffffffffffffffffffffffffffffffffffffff1690602001909291905050506108bf565b005b34801561024157600080fd5b5061024a610c8c565b005b34801561025857600080fd5b506102856004803603602081101561026f57600080fd5b8101908080359060200190929190505050610de4565b005b6102b36004803603602081101561029d57600080fd5b8101908080359060200190929190505050610ee0565b604051808373ffffffffffffffffffffffffffffffffffffffff1673ffffffffffffffffffffffffffffffffffffffff16815260200180602001828103825283818151815260200191508051906020019080838360005b8381101561032557808201518184015260208101905061030a565b50505050905090810190601f1680156103525780820380516001836020036101000a031916815260200191505b50935050505060405180910390f35b34801561036d57600080fd5b506104ce600480360361010081101561038557600080fd5b81019080803590602001906401000000008111156103a257600080fd5b8201836020820111156103b457600080fd5b803590602001918460018302840111640100000000831117156103d657600080fd5b9091929391929390803590602001906401000000008111156103f757600080fd5b82018360208201111561040957600080fd5b8035906020019184600183028401116401000000008311171561042b57600080fd5b90919293919293908035906020019064010000000081111561044c57600080fd5b82018360208201111561045e57600080fd5b8035906020019184600183028401116401000000008311171561048057600080fd5b9091929391929390803563ffffffff169060200190929190803563ffffffff16906020019092919080359060200190929190803590602001909291908035906020019092919050505061112c565b005b3480156104dc57600080fd5b50610509600480360360208110156104f357600080fd5b8101908080359060200190929190505050611595565b005b34801561051757600080fd5b50610698600480360360a081101561052e57600080fd5b810190808035906020019064010000000081111561054b57600080fd5b82018360208201111561055d57600080fd5b8035906020019184600183028401116401000000008311171561057f57600080fd5b9091929391929390803590602001906401000000008111156105a057600080fd5b8201836020820111156105b257600080fd5b803590602001918460018302840111640100000000831117156105d457600080fd5b9091929391929390803590602001906401000000008111156105f557600080fd5b82018360208201111561060757600080fd5b8035906020019184600183028401116401000000008311171561062957600080fd5b90919293919293908035906020019064010000000081111561064a57600080fd5b82018360208201111561065c57600080fd5b8035906020019184600183028401116401000000008311171561067e57600080fd5b909192939192939080359060200190929190505050611690565b005b600060608383604051602001808383808284378083019250505092505050604051602081830303815290604052805190602001206001600360003373ffffffffffffffffffffffffffffffffffffffff1673ffffffffffffffffffffffffffffffffffffffff168152602001908152602001600020548154811061071a57fe5b9060005260206000209060060201600301541461079f576040517f08c379a000000000000000000000000000000000000000000000000000000000815260040180806020018281038252600e8152602001807f57726f6e672070617373776f726400000000000000000000000000000000000081525060200191505060405180910390fd5b60016040518060400160405280601981526020017f55736572206c6f6767656420696e20737563636566756c6c7900000000000000815250915091509250929050565b600181815481106107ef57fe5b906000526020600020906006020160050160009054906101000a900473ffffffffffffffffffffffffffffffffffffffff1673ffffffffffffffffffffffffffffffffffffffff163373ffffffffffffffffffffffffffffffffffffffff161461085857600080fd5b6001818154811061086557fe5b9060005260206000209050506001818154811061087e57fe5b9060005260206000209050506001818154811061089757fe5b906000526020600020905050600181815481106108b057fe5b90600052602060002090505050565b6000809054906101000a900473ffffffffffffffffffffffffffffffffffffffff1673ffffffffffffffffffffffffffffffffffffffff163373ffffffffffffffffffffffffffffffffffffffff1614610981576040517f08c379a00000000000000000000000000000000000000000000000000000000081526004018080602001828103825260158152602001807f596f7520617265206e6f74207468652061646d696e000000000000000000000081525060200191505060405180910390fd5b6004838154811061098e57fe5b90600052602060002090600702016004015482146109f7576040517f08c379a0000000000000000000000000000000000000000000000000000000008152600401808060200182810382526022815260200180611b406022913960400191505060405180910390fd5b6005600084815260200190815260200160002060009054906101000a900473ffffffffffffffffffffffffffffffffffffffff16600760006101000a81548173ffffffffffffffffffffffffffffffffffffffff021916908373ffffffffffffffffffffffffffffffffffffffff160217905550600760009054906101000a900473ffffffffffffffffffffffffffffffffffffffff1673ffffffffffffffffffffffffffffffffffffffff166108fc839081150290604051600060405180830381858888f19350505050158015610ad3573d6000803e3d6000fd5b50806005600085815260200190815260200160002060006101000a81548173ffffffffffffffffffffffffffffffffffffffff021916908373ffffffffffffffffffffffffffffffffffffffff160217905550600660008273ffffffffffffffffffffffffffffffffffffffff1673ffffffffffffffffffffffffffffffffffffffff168152602001908152602001600020600081548092919060010191905055507f872ffb1775dea2f37c123fd0472cd65e2970a3c0559c61bea59aba950f49c61160048481548110610ba357fe5b9060005260206000209060070201600001838360405180806020018481526020018373ffffffffffffffffffffffffffffffffffffffff1673ffffffffffffffffffffffffffffffffffffffff168152602001828103825285818154600181600116156101000203166002900481526020019150805460018160011615610100020316600290048015610c775780601f10610c4c57610100808354040283529160200191610c77565b820191906000526020600020905b815481529060010190602001808311610c5a57829003601f168201915b505094505050505060405180910390a1505050565b6000600160048054905003905060008090505b81811015610de0576001151560048281548110610cb857fe5b906000526020600020906007020160060160019054906101000a900460ff161515148015610d1557506000151560048281548110610cf257fe5b906000526020600020906007020160060160009054906101000a900460ff161515145b15610dd35760048181548110610d2757fe5b90600052602060002090505060048181548110610d4057fe5b90600052602060002090505060048181548110610d5957fe5b90600052602060002090505060048181548110610d7257fe5b906000526020600020906007020160030160009054906101000a90505060048181548110610d9c57fe5b906000526020600020906007020160030160049054906101000a90505060048181548110610dc657fe5b9060005260206000209050505b8080600101915050610c9f565b5050565b6000809054906101000a900473ffffffffffffffffffffffffffffffffffffffff1673ffffffffffffffffffffffffffffffffffffffff163373ffffffffffffffffffffffffffffffffffffffff1614610ea6576040517f08c379a00000000000000000000000000000000000000000000000000000000081526004018080602001828103825260158152602001807f596f7520617265206e6f74207468652061646d696e000000000000000000000081525060200191505060405180910390fd5b600160048281548110610eb557fe5b906000526020600020906007020160060160016101000a81548160ff02191690831515021790555050565b60006060600360003373ffffffffffffffffffffffffffffffffffffffff1673ffffffffffffffffffffffffffffffffffffffff168152602001908152602001600020546002600082815260200190815260200160002060009054906101000a900473ffffffffffffffffffffffffffffffffffffffff1673ffffffffffffffffffffffffffffffffffffffff163373ffffffffffffffffffffffffffffffffffffffff1614610f8f57600080fd5b836000151560048281548110610fa157fe5b906000526020600020906007020160060160009054906101000a900460ff16151514610fcc57600080fd5b8460048181548110610fda57fe5b9060005260206000209060070201600401543414611043576040517f08c379a0000000000000000000000000000000000000000000000000000000008152600401808060200182810382526022815260200180611b406022913960400191505060405180910390fd5b60016004878154811061105257fe5b906000526020600020906007020160060160006101000a81548160ff02191690831515021790555060006005600088815260200190815260200160002060009054906101000a900473ffffffffffffffffffffffffffffffffffffffff169050600660008273ffffffffffffffffffffffffffffffffffffffff1673ffffffffffffffffffffffffffffffffffffffff1681526020019081526020016000206000815480929190600190039190505550338090506040518060600160405280603d8152602001611b03603d91399550955050505050915091565b806002600082815260200190815260200160002060009054906101000a900473ffffffffffffffffffffffffffffffffffffffff1673ffffffffffffffffffffffffffffffffffffffff163373ffffffffffffffffffffffffffffffffffffffff161461119857600080fd5b60046040518061012001604052808e8e8080601f016020809104026020016040519081016040528093929190818152602001838380828437600081840152601f19601f8201169050808301925050505050505081526020018c8c8080601f016020809104026020016040519081016040528093929190818152602001838380828437600081840152601f19601f8201169050808301925050505050505081526020018a8a8080601f016020809104026020016040519081016040528093929190818152602001838380828437600081840152601f19601f8201169050808301925050505050505081526020018863ffffffff1681526020018763ffffffff16815260200186815260200185815260200160001515815260200160001515815250908060018154018082558091505060019003906000526020600020906007020160009091909190915060008201518160000190805190602001906112fd929190611a5d565b50602082015181600101908051906020019061131a929190611a5d565b506040820151816002019080519060200190611337929190611a5d565b5060608201518160030160006101000a81548163ffffffff021916908363ffffffff16021790555060808201518160030160046101000a81548163ffffffff021916908363ffffffff16021790555060a0820151816004015560c0820151816005015560e08201518160060160006101000a81548160ff0219169083151502179055506101008201518160060160016101000a81548160ff021916908315150217905550505060006001600480549050039050336005600083815260200190815260200160002060006101000a81548173ffffffffffffffffffffffffffffffffffffffff021916908373ffffffffffffffffffffffffffffffffffffffff160217905550600660003373ffffffffffffffffffffffffffffffffffffffff1673ffffffffffffffffffffffffffffffffffffffff168152602001908152602001600020600081548092919060010191905055507f4827e0b3cf80f532d9eb1f6635c1ebe26414a350f160e26da7446f8f28ede28a8d8d8d8d8d8d8d8d8d604051808060200180602001806020018763ffffffff1663ffffffff1681526020018663ffffffff1663ffffffff16815260200185815260200184810384528d8d82818152602001925080828437600081840152601f19601f82011690508083019250505084810383528b8b82818152602001925080828437600081840152601f19601f8201169050808301925050508481038252898982818152602001925080828437600081840152601f19601f8201169050808301925050509c5050505050505050505050505060405180910390a150505050505050505050505050565b6000809054906101000a900473ffffffffffffffffffffffffffffffffffffffff1673ffffffffffffffffffffffffffffffffffffffff163373ffffffffffffffffffffffffffffffffffffffff1614611657576040517f08c379a00000000000000000000000000000000000000000000000000000000081526004018080602001828103825260158152602001807f596f7520617265206e6f74207468652061646d696e000000000000000000000081525060200191505060405180910390fd5b600180828154811061166557fe5b906000526020600020906006020160050160146101000a81548160ff02191690831515021790555050565b6000838360405160200180838380828437808301925050509250505060405160208183030381529060405280519060200120905060016040518060e001604052808c8c8080601f016020809104026020016040519081016040528093929190818152602001838380828437600081840152601f19601f8201169050808301925050505050505081526020018a8a8080601f016020809104026020016040519081016040528093929190818152602001838380828437600081840152601f19601f82011690508083019250505050505050815260200188888080601f016020809104026020016040519081016040528093929190818152602001838380828437600081840152601f19601f8201169050808301925050505050505081526020018381526020018481526020013373ffffffffffffffffffffffffffffffffffffffff1681526020016000151581525090806001815401808255809150506001900390600052602060002090600602016000909190919091506000820151816000019080519060200190611823929190611a5d565b506020820151816001019080519060200190611840929190611a5d565b50604082015181600201908051906020019061185d929190611a5d565b50606082015181600301556080820151816004015560a08201518160050160006101000a81548173ffffffffffffffffffffffffffffffffffffffff021916908373ffffffffffffffffffffffffffffffffffffffff16021790555060c08201518160050160146101000a81548160ff0219169083151502179055505050600060018080549050039050336002600083815260200190815260200160002060006101000a81548173ffffffffffffffffffffffffffffffffffffffff021916908373ffffffffffffffffffffffffffffffffffffffff16021790555080600360003373ffffffffffffffffffffffffffffffffffffffff1673ffffffffffffffffffffffffffffffffffffffff168152602001908152602001600020819055507f0a032906778f4cbbf110ebaf24cfc0aa4eb3317df579313a5e94b5845cfc8c15818c8c8c8c8c8c6040518088815260200180602001806020018060200184810384528a8a82818152602001925080828437600081840152601f19601f8201169050808301925050508481038352888882818152602001925080828437600081840152601f19601f8201169050808301925050508481038252868682818152602001925080828437600081840152601f19601f8201169050808301925050509a505050505050505050505060405180910390a15050505050505050505050565b828054600181600116156101000203166002900490600052602060002090601f016020900481019282601f10611a9e57805160ff1916838001178555611acc565b82800160010185558215611acc579182015b82811115611acb578251825591602001919060010190611ab0565b5b509050611ad99190611add565b5090565b611aff91905b80821115611afb576000816000905550600101611ae3565b5090565b9056fe506c65617365207761697420666f72206e6f74206d6f7265207468616e20323420686f75727320746f2065666665637420746865207472616e73666572596f75206861766520746f20696e7075742074686520726967687420616d6f756e74a264697066735822122048fccf0ffcc373084cee3a6f8c5b3274df8acfd9ea24f81bf33cb489b79e30ff64736f6c63430006010033",
  "source": "// SPDX-License-Identifier: MIT\r\npragma solidity ^0.6.0;\r\n\r\nimport './registerProperty.sol';\r\n\r\ncontract PropertySale is propertyRegister{\r\n\r\n    event _propertySold(string name, uint256 amount, address new_owner);\r\n\r\n    address payable recipient;\r\n    \r\n    modifier rightprice (uint _propertyId) {\r\n        require(msg.value == properties[_propertyId].price, \"You have to input the right amount\");\r\n        _;\r\n    }\r\n\r\n    modifier onSale(uint _propertyId) {\r\n        require(properties[_propertyId].saleStatus == false);\r\n        _;\r\n    }\r\n\r\n    function _buyProperty(uint propertyId ) payable external usersOnly(userToProfile[msg.sender]) onSale(propertyId) rightprice(propertyId) returns(address, string memory) {\r\n        \r\n        properties[propertyId].saleStatus = true;\r\n        address old_owner = propertyToOwner[propertyId];\r\n        propertyCount[old_owner] --;\r\n        return (msg.sender, \"Please wait for not more than 24 hours to effect the transfer\");       \r\n    }\r\n\r\n    function effectTransfer(uint propertyId, uint amount, address _new_owner) external onlyOwner{\r\n        require(amount == properties[propertyId].price, \"You have to input the right amount\");\r\n        recipient = payable(propertyToOwner[propertyId]);\r\n        recipient.transfer(amount);\r\n        propertyToOwner[propertyId] = _new_owner;\r\n        propertyCount[_new_owner] ++; \r\n        emit _propertySold(properties[propertyId].name, amount, _new_owner);\r\n    }\r\n\r\n    \r\n}",
  "sourcePath": "D:/personal project/blockVilla/BlockVilla/contracts/sellProperty.sol",
  "compiler": {
    "name": "solc",
    "version": "0.6.1+commit.e6f7d5a4.Emscripten.clang"
  },
  "schemaVersion": "3.2.5",
  "updatedAt": "2020-11-14T18:33:40.110Z",
  "devdoc": {
    "methods": {}
  },
  "userdoc": {
    "methods": {}
  }
}