{
  "contractName": "propertyRegister",
  "abi": [
    {
      "anonymous": false,
      "inputs": [
        {
          "indexed": false,
          "internalType": "string",
          "name": "name",
          "type": "string"
        },
        {
          "indexed": false,
          "internalType": "string",
          "name": "location",
          "type": "string"
        },
        {
          "indexed": false,
          "internalType": "string",
          "name": "extraDetails",
          "type": "string"
        },
        {
          "indexed": false,
          "internalType": "uint32",
          "name": "landOrHouse",
          "type": "uint32"
        },
        {
          "indexed": false,
          "internalType": "uint32",
          "name": "rentOrSale",
          "type": "uint32"
        },
        {
          "indexed": false,
          "internalType": "uint256",
          "name": "price",
          "type": "uint256"
        }
      ],
      "name": "newProperty",
      "type": "event"
    },
    {
      "anonymous": false,
      "inputs": [
        {
          "indexed": false,
          "internalType": "uint256",
          "name": "id",
          "type": "uint256"
        },
        {
          "indexed": false,
          "internalType": "string",
          "name": "name",
          "type": "string"
        },
        {
          "indexed": false,
          "internalType": "string",
          "name": "work_address",
          "type": "string"
        },
        {
          "indexed": false,
          "internalType": "string",
          "name": "extra_detail",
          "type": "string"
        }
      ],
      "name": "newUser",
      "type": "event"
    },
    {
      "inputs": [
        {
          "internalType": "uint256",
          "name": "_userId",
          "type": "uint256"
        }
      ],
      "name": "_approveUser",
      "outputs": [],
      "stateMutability": "nonpayable",
      "type": "function"
    },
    {
      "inputs": [
        {
          "internalType": "string",
          "name": "_password",
          "type": "string"
        }
      ],
      "name": "_userLogin",
      "outputs": [
        {
          "internalType": "bool",
          "name": "",
          "type": "bool"
        }
      ],
      "stateMutability": "view",
      "type": "function"
    },
    {
      "inputs": [
        {
          "internalType": "uint256",
          "name": "_userId",
          "type": "uint256"
        }
      ],
      "name": "_viewUserProfile",
      "outputs": [],
      "stateMutability": "view",
      "type": "function"
    },
    {
      "inputs": [
        {
          "internalType": "string",
          "name": "_name",
          "type": "string"
        },
        {
          "internalType": "string",
          "name": "_work_address",
          "type": "string"
        },
        {
          "internalType": "string",
          "name": "_extra_detail",
          "type": "string"
        },
        {
          "internalType": "string",
          "name": "_passsword",
          "type": "string"
        },
        {
          "internalType": "uint256",
          "name": "_photo",
          "type": "uint256"
        }
      ],
      "name": "addUser",
      "outputs": [],
      "stateMutability": "nonpayable",
      "type": "function"
    },
    {
      "inputs": [
        {
          "internalType": "string",
          "name": "_name",
          "type": "string"
        },
        {
          "internalType": "string",
          "name": "_location",
          "type": "string"
        },
        {
          "internalType": "string",
          "name": "_extraDetails",
          "type": "string"
        },
        {
          "internalType": "uint32",
          "name": "_landOrHouse",
          "type": "uint32"
        },
        {
          "internalType": "uint32",
          "name": "_rentOrSale",
          "type": "uint32"
        },
        {
          "internalType": "uint256",
          "name": "_price",
          "type": "uint256"
        },
        {
          "internalType": "uint256",
          "name": "_propertyDeed",
          "type": "uint256"
        },
        {
          "internalType": "uint256",
          "name": "_user_id",
          "type": "uint256"
        }
      ],
      "name": "_addProperty",
      "outputs": [],
      "stateMutability": "nonpayable",
      "type": "function"
    },
    {
      "inputs": [
        {
          "internalType": "uint256",
          "name": "_propertyId",
          "type": "uint256"
        }
      ],
      "name": "_approveProperty",
      "outputs": [],
      "stateMutability": "nonpayable",
      "type": "function"
    },
    {
      "inputs": [],
      "name": "_viewProperties",
      "outputs": [],
      "stateMutability": "view",
      "type": "function"
    }
  ],
  "bytecode": "0x6080604052336000806101000a81548173ffffffffffffffffffffffffffffffffffffffff021916908373ffffffffffffffffffffffffffffffffffffffff1602179055506112d1806100536000396000f3fe608060405234801561001057600080fd5b506004361061007d5760003560e01c80637df0c9221161005b5780637df0c9221461014b578063b0b05ac714610179578063dbceeb4f146102db578063ff41cbf6146103095761007d565b80631615da4f146100825780634df351a414610113578063679e47a914610141575b600080fd5b6100f96004803603602081101561009857600080fd5b81019080803590602001906401000000008111156100b557600080fd5b8201836020820111156100c757600080fd5b803590602001918460018302840111640100000000831117156100e957600080fd5b909192939192939050505061048b565b604051808215151515815260200191505060405180910390f35b61013f6004803603602081101561012957600080fd5b8101908080359060200190929190505050610594565b005b610149610671565b005b6101776004803603602081101561016157600080fd5b81019080803590602001909291905050506107c9565b005b6102d9600480360361010081101561019057600080fd5b81019080803590602001906401000000008111156101ad57600080fd5b8201836020820111156101bf57600080fd5b803590602001918460018302840111640100000000831117156101e157600080fd5b90919293919293908035906020019064010000000081111561020257600080fd5b82018360208201111561021457600080fd5b8035906020019184600183028401116401000000008311171561023657600080fd5b90919293919293908035906020019064010000000081111561025757600080fd5b82018360208201111561026957600080fd5b8035906020019184600183028401116401000000008311171561028b57600080fd5b9091929391929390803563ffffffff169060200190929190803563ffffffff1690602001909291908035906020019092919080359060200190929190803590602001909291905050506108c5565b005b610307600480360360208110156102f157600080fd5b8101908080359060200190929190505050610d2e565b005b610489600480360360a081101561031f57600080fd5b810190808035906020019064010000000081111561033c57600080fd5b82018360208201111561034e57600080fd5b8035906020019184600183028401116401000000008311171561037057600080fd5b90919293919293908035906020019064010000000081111561039157600080fd5b8201836020820111156103a357600080fd5b803590602001918460018302840111640100000000831117156103c557600080fd5b9091929391929390803590602001906401000000008111156103e657600080fd5b8201836020820111156103f857600080fd5b8035906020019184600183028401116401000000008311171561041a57600080fd5b90919293919293908035906020019064010000000081111561043b57600080fd5b82018360208201111561044d57600080fd5b8035906020019184600183028401116401000000008311171561046f57600080fd5b909192939192939080359060200190929190505050610e29565b005b60008282604051602001808383808284378083019250505092505050604051602081830303815290604052805190602001206001600360003373ffffffffffffffffffffffffffffffffffffffff1673ffffffffffffffffffffffffffffffffffffffff168152602001908152602001600020548154811061050957fe5b9060005260206000209060060201600301541461058e576040517f08c379a000000000000000000000000000000000000000000000000000000000815260040180806020018281038252600e8152602001807f57726f6e672070617373776f726400000000000000000000000000000000000081525060200191505060405180910390fd5b92915050565b600181815481106105a157fe5b906000526020600020906006020160050160009054906101000a900473ffffffffffffffffffffffffffffffffffffffff1673ffffffffffffffffffffffffffffffffffffffff163373ffffffffffffffffffffffffffffffffffffffff161461060a57600080fd5b6001818154811061061757fe5b9060005260206000209050506001818154811061063057fe5b9060005260206000209050506001818154811061064957fe5b9060005260206000209050506001818154811061066257fe5b90600052602060002090505050565b6000600160048054905003905060008090505b818110156107c557600115156004828154811061069d57fe5b906000526020600020906007020160060160019054906101000a900460ff1615151480156106fa575060001515600482815481106106d757fe5b906000526020600020906007020160060160009054906101000a900460ff161515145b156107b8576004818154811061070c57fe5b9060005260206000209050506004818154811061072557fe5b9060005260206000209050506004818154811061073e57fe5b9060005260206000209050506004818154811061075757fe5b906000526020600020906007020160030160009054906101000a9050506004818154811061078157fe5b906000526020600020906007020160030160049054906101000a905050600481815481106107ab57fe5b9060005260206000209050505b8080600101915050610684565b5050565b6000809054906101000a900473ffffffffffffffffffffffffffffffffffffffff1673ffffffffffffffffffffffffffffffffffffffff163373ffffffffffffffffffffffffffffffffffffffff161461088b576040517f08c379a00000000000000000000000000000000000000000000000000000000081526004018080602001828103825260158152602001807f596f7520617265206e6f74207468652061646d696e000000000000000000000081525060200191505060405180910390fd5b60016004828154811061089a57fe5b906000526020600020906007020160060160016101000a81548160ff02191690831515021790555050565b806002600082815260200190815260200160002060009054906101000a900473ffffffffffffffffffffffffffffffffffffffff1673ffffffffffffffffffffffffffffffffffffffff163373ffffffffffffffffffffffffffffffffffffffff161461093157600080fd5b60046040518061012001604052808e8e8080601f016020809104026020016040519081016040528093929190818152602001838380828437600081840152601f19601f8201169050808301925050505050505081526020018c8c8080601f016020809104026020016040519081016040528093929190818152602001838380828437600081840152601f19601f8201169050808301925050505050505081526020018a8a8080601f016020809104026020016040519081016040528093929190818152602001838380828437600081840152601f19601f8201169050808301925050505050505081526020018863ffffffff1681526020018763ffffffff1681526020018681526020018581526020016000151581526020016000151581525090806001815401808255809150506001900390600052602060002090600702016000909190919091506000820151816000019080519060200190610a969291906111f6565b506020820151816001019080519060200190610ab39291906111f6565b506040820151816002019080519060200190610ad09291906111f6565b5060608201518160030160006101000a81548163ffffffff021916908363ffffffff16021790555060808201518160030160046101000a81548163ffffffff021916908363ffffffff16021790555060a0820151816004015560c0820151816005015560e08201518160060160006101000a81548160ff0219169083151502179055506101008201518160060160016101000a81548160ff021916908315150217905550505060006001600480549050039050336005600083815260200190815260200160002060006101000a81548173ffffffffffffffffffffffffffffffffffffffff021916908373ffffffffffffffffffffffffffffffffffffffff160217905550600660003373ffffffffffffffffffffffffffffffffffffffff1673ffffffffffffffffffffffffffffffffffffffff168152602001908152602001600020600081548092919060010191905055507f4827e0b3cf80f532d9eb1f6635c1ebe26414a350f160e26da7446f8f28ede28a8d8d8d8d8d8d8d8d8d604051808060200180602001806020018763ffffffff1663ffffffff1681526020018663ffffffff1663ffffffff16815260200185815260200184810384528d8d82818152602001925080828437600081840152601f19601f82011690508083019250505084810383528b8b82818152602001925080828437600081840152601f19601f8201169050808301925050508481038252898982818152602001925080828437600081840152601f19601f8201169050808301925050509c5050505050505050505050505060405180910390a150505050505050505050505050565b6000809054906101000a900473ffffffffffffffffffffffffffffffffffffffff1673ffffffffffffffffffffffffffffffffffffffff163373ffffffffffffffffffffffffffffffffffffffff1614610df0576040517f08c379a00000000000000000000000000000000000000000000000000000000081526004018080602001828103825260158152602001807f596f7520617265206e6f74207468652061646d696e000000000000000000000081525060200191505060405180910390fd5b6001808281548110610dfe57fe5b906000526020600020906006020160050160146101000a81548160ff02191690831515021790555050565b6000838360405160200180838380828437808301925050509250505060405160208183030381529060405280519060200120905060016040518060e001604052808c8c8080601f016020809104026020016040519081016040528093929190818152602001838380828437600081840152601f19601f8201169050808301925050505050505081526020018a8a8080601f016020809104026020016040519081016040528093929190818152602001838380828437600081840152601f19601f82011690508083019250505050505050815260200188888080601f016020809104026020016040519081016040528093929190818152602001838380828437600081840152601f19601f8201169050808301925050505050505081526020018381526020018481526020013373ffffffffffffffffffffffffffffffffffffffff1681526020016000151581525090806001815401808255809150506001900390600052602060002090600602016000909190919091506000820151816000019080519060200190610fbc9291906111f6565b506020820151816001019080519060200190610fd99291906111f6565b506040820151816002019080519060200190610ff69291906111f6565b50606082015181600301556080820151816004015560a08201518160050160006101000a81548173ffffffffffffffffffffffffffffffffffffffff021916908373ffffffffffffffffffffffffffffffffffffffff16021790555060c08201518160050160146101000a81548160ff0219169083151502179055505050600060018080549050039050336002600083815260200190815260200160002060006101000a81548173ffffffffffffffffffffffffffffffffffffffff021916908373ffffffffffffffffffffffffffffffffffffffff16021790555080600360003373ffffffffffffffffffffffffffffffffffffffff1673ffffffffffffffffffffffffffffffffffffffff168152602001908152602001600020819055507f0a032906778f4cbbf110ebaf24cfc0aa4eb3317df579313a5e94b5845cfc8c15818c8c8c8c8c8c6040518088815260200180602001806020018060200184810384528a8a82818152602001925080828437600081840152601f19601f8201169050808301925050508481038352888882818152602001925080828437600081840152601f19601f8201169050808301925050508481038252868682818152602001925080828437600081840152601f19601f8201169050808301925050509a505050505050505050505060405180910390a15050505050505050505050565b828054600181600116156101000203166002900490600052602060002090601f016020900481019282601f1061123757805160ff1916838001178555611265565b82800160010185558215611265579182015b82811115611264578251825591602001919060010190611249565b5b5090506112729190611276565b5090565b61129891905b8082111561129457600081600090555060010161127c565b5090565b9056fea2646970667358221220e0a3279a7a096924fff99c0274f314ee5e1fdf7df5ea17a248226507568d572c64736f6c63430006010033",
  "source": "// SPDX-License-Identifier: MIT\r\npragma solidity ^0.6.0;\r\n// pragma experimental ABIEncoderV2;\r\n\r\nimport './userRegistry.sol';\r\n\r\ncontract propertyRegister is registerUsers  {    \r\n\r\n\r\n   struct Property{\r\n       string name;\r\n       string location;\r\n       string extraDetails;\r\n       uint32 landOrHouse;\r\n       uint32 rentOrSale;\r\n       uint256 price;\r\n       uint256 propertyDeed;\r\n       bool saleStatus;\r\n       bool status;\r\n\r\n   }\r\n\r\n   modifier usersOnly(uint profile_id) {\r\n       require(msg.sender == profileToUser[profile_id]);\r\n       _;\r\n   }  \r\n\r\n   Property[]  properties;\r\n\r\n   mapping (uint => address) propertyToOwner;\r\n   mapping (address => uint) propertyCount;\r\n   \r\n   event newProperty(string name, string location,string extraDetails, uint32 landOrHouse, uint32 rentOrSale, uint256 price);\r\n\r\n   function _addProperty(string calldata _name, string calldata _location,string calldata _extraDetails, uint32 _landOrHouse, uint32 _rentOrSale, uint256 _price, uint256 _propertyDeed, uint _user_id) external usersOnly(_user_id) {\r\n\r\n       properties.push(Property(_name, _location,_extraDetails, _landOrHouse, _rentOrSale, _price,_propertyDeed, false,false));\r\n       uint id = properties.length - 1;\r\n       propertyToOwner[id] = msg.sender;\r\n       propertyCount[msg.sender] ++;\r\n       emit newProperty(_name, _location, _extraDetails, _landOrHouse, _rentOrSale, _price);\r\n\r\n   }\r\n\r\n    function _approveProperty(uint _propertyId) external onlyOwner {\r\n        properties[_propertyId].status = true;\r\n    }\r\n\r\n    function _viewProperties() view public {\r\n        uint _length = properties.length - 1;\r\n        for (uint i=0; i<_length; i++) {\r\n          \r\n          if (properties[i].status == true && properties[i].saleStatus == false) {\r\n            \r\n            properties[i].name;\r\n            properties[i].location;\r\n            properties[i].extraDetails;\r\n            properties[i].landOrHouse;\r\n            properties[i].rentOrSale;\r\n            properties[i].price;\r\n          }\r\n          \r\n          \r\n        }\r\n    }\r\n    \r\n    \r\n\r\n\r\n}",
  "sourcePath": "D:\\personal project\\blockVilla\\BlockVilla\\contracts\\registerProperty.sol",
  "compiler": {
    "name": "solc",
    "version": "0.6.1+commit.e6f7d5a4.Emscripten.clang"
  },
  "schemaVersion": "3.2.5",
  "updatedAt": "2020-11-14T18:26:56.067Z",
  "devdoc": {
    "methods": {}
  },
  "userdoc": {
    "methods": {}
  }
}