{
  "contractName": "RegisterUsers",
  "abi": [
    {
      "inputs": [],
      "stateMutability": "nonpayable",
      "type": "constructor"
    },
    {
      "anonymous": false,
      "inputs": [
        {
          "indexed": false,
          "internalType": "uint256",
          "name": "id",
          "type": "uint256"
        },
        {
          "indexed": false,
          "internalType": "string",
          "name": "name",
          "type": "string"
        },
        {
          "indexed": false,
          "internalType": "string",
          "name": "work_address",
          "type": "string"
        },
        {
          "indexed": false,
          "internalType": "string",
          "name": "extra_detail",
          "type": "string"
        }
      ],
      "name": "newUser",
      "type": "event"
    },
    {
      "anonymous": false,
      "inputs": [
        {
          "indexed": false,
          "internalType": "string",
          "name": "name",
          "type": "string"
        },
        {
          "indexed": false,
          "internalType": "string",
          "name": "work_address",
          "type": "string"
        },
        {
          "indexed": false,
          "internalType": "string",
          "name": "extra_detail",
          "type": "string"
        }
      ],
      "name": "userDetail",
      "type": "event"
    },
    {
      "inputs": [
        {
          "internalType": "string",
          "name": "_name",
          "type": "string"
        },
        {
          "internalType": "string",
          "name": "_work_address",
          "type": "string"
        },
        {
          "internalType": "string",
          "name": "_extra_detail",
          "type": "string"
        },
        {
          "internalType": "string",
          "name": "_passsword",
          "type": "string"
        }
      ],
      "name": "addUser",
      "outputs": [],
      "stateMutability": "nonpayable",
      "type": "function"
    },
    {
      "inputs": [
        {
          "internalType": "uint256",
          "name": "_userId",
          "type": "uint256"
        }
      ],
      "name": "viewUserProfile",
      "outputs": [
        {
          "internalType": "string",
          "name": "",
          "type": "string"
        },
        {
          "internalType": "string",
          "name": "",
          "type": "string"
        },
        {
          "internalType": "string",
          "name": "",
          "type": "string"
        }
      ],
      "stateMutability": "view",
      "type": "function"
    },
    {
      "inputs": [
        {
          "internalType": "string",
          "name": "_password",
          "type": "string"
        }
      ],
      "name": "userLogin",
      "outputs": [
        {
          "internalType": "bool",
          "name": "",
          "type": "bool"
        },
        {
          "internalType": "string",
          "name": "",
          "type": "string"
        }
      ],
      "stateMutability": "view",
      "type": "function"
    }
  ],
  "bytecode": "0x608060405234801561001057600080fd5b50336000806101000a81548173ffffffffffffffffffffffffffffffffffffffff021916908373ffffffffffffffffffffffffffffffffffffffff160217905550610d5e806100606000396000f3fe608060405234801561001057600080fd5b50600436106100415760003560e01c806301cda3ac14610046578063b01f91bb146101be578063feda0a28146102bb575b600080fd5b6101bc6004803603608081101561005c57600080fd5b810190808035906020019064010000000081111561007957600080fd5b82018360208201111561008b57600080fd5b803590602001918460018302840111640100000000831117156100ad57600080fd5b9091929391929390803590602001906401000000008111156100ce57600080fd5b8201836020820111156100e057600080fd5b8035906020019184600183028401116401000000008311171561010257600080fd5b90919293919293908035906020019064010000000081111561012357600080fd5b82018360208201111561013557600080fd5b8035906020019184600183028401116401000000008311171561015757600080fd5b90919293919293908035906020019064010000000081111561017857600080fd5b82018360208201111561018a57600080fd5b803590602001918460018302840111640100000000831117156101ac57600080fd5b909192939192939050505061043a565b005b610235600480360360208110156101d457600080fd5b81019080803590602001906401000000008111156101f157600080fd5b82018360208201111561020357600080fd5b8035906020019184600183028401116401000000008311171561022557600080fd5b90919293919293905050506108f3565b604051808315151515815260200180602001828103825283818151815260200191508051906020019080838360005b8381101561027f578082015181840152602081019050610264565b50505050905090810190601f1680156102ac5780820380516001836020036101000a031916815260200191505b50935050505060405180910390f35b6102e7600480360360208110156102d157600080fd5b8101908080359060200190929190505050610a3b565b60405180806020018060200180602001848103845287818151815260200191508051906020019080838360005b8381101561032f578082015181840152602081019050610314565b50505050905090810190601f16801561035c5780820380516001836020036101000a031916815260200191505b50848103835286818151815260200191508051906020019080838360005b8381101561039557808201518184015260208101905061037a565b50505050905090810190601f1680156103c25780820380516001836020036101000a031916815260200191505b50848103825285818151815260200191508051906020019080838360005b838110156103fb5780820151818401526020810190506103e0565b50505050905090810190601f1680156104285780820380516001836020036101000a031916815260200191505b50965050505050505060405180910390f35b3360001515600460008373ffffffffffffffffffffffffffffffffffffffff1673ffffffffffffffffffffffffffffffffffffffff16815260200190815260200160002060009054906101000a900460ff16151514610501576040517f08c379a000000000000000000000000000000000000000000000000000000000815260040180806020018281038252601b8152602001807f596f7520616c7265616479206861766520616e206163636f756e74000000000081525060200191505060405180910390fd5b6000838360405160200180838380828437808301925050509250505060405160208183030381529060405280519060200120905060016040518060a001604052808c8c8080601f016020809104026020016040519081016040528093929190818152602001838380828437600081840152601f19601f8201169050808301925050505050505081526020018a8a8080601f016020809104026020016040519081016040528093929190818152602001838380828437600081840152601f19601f82011690508083019250505050505050815260200188888080601f016020809104026020016040519081016040528093929190818152602001838380828437600081840152601f19601f8201169050808301925050505050505081526020018381526020013373ffffffffffffffffffffffffffffffffffffffff1681525090806001815401808255809150506001900390600052602060002090600502016000909190919091506000820151816000019080519060200190610685929190610c83565b5060208201518160010190805190602001906106a2929190610c83565b5060408201518160020190805190602001906106bf929190610c83565b506060820151816003015560808201518160040160006101000a81548173ffffffffffffffffffffffffffffffffffffffff021916908373ffffffffffffffffffffffffffffffffffffffff16021790555050506000600180805490500363ffffffff169050336002600083815260200190815260200160002060006101000a81548173ffffffffffffffffffffffffffffffffffffffff021916908373ffffffffffffffffffffffffffffffffffffffff16021790555080600360003373ffffffffffffffffffffffffffffffffffffffff1673ffffffffffffffffffffffffffffffffffffffff168152602001908152602001600020819055506001600460003373ffffffffffffffffffffffffffffffffffffffff1673ffffffffffffffffffffffffffffffffffffffff16815260200190815260200160002060006101000a81548160ff0219169083151502179055507f0a032906778f4cbbf110ebaf24cfc0aa4eb3317df579313a5e94b5845cfc8c15818c8c8c8c8c8c6040518088815260200180602001806020018060200184810384528a8a82818152602001925080828437600081840152601f19601f8201169050808301925050508481038352888882818152602001925080828437600081840152601f19601f8201169050808301925050508481038252868682818152602001925080828437600081840152601f19601f8201169050808301925050509a505050505050505050505060405180910390a15050505050505050505050565b600060608383604051602001808383808284378083019250505092505050604051602081830303815290604052805190602001206001600360003373ffffffffffffffffffffffffffffffffffffffff1673ffffffffffffffffffffffffffffffffffffffff168152602001908152602001600020548154811061097357fe5b906000526020600020906005020160030154146109f8576040517f08c379a000000000000000000000000000000000000000000000000000000000815260040180806020018281038252600e8152602001807f57726f6e672070617373776f726400000000000000000000000000000000000081525060200191505060405180910390fd5b60016040518060400160405280601981526020017f55736572206c6f6767656420696e20737563636566756c6c7900000000000000815250915091509250929050565b60608060608060018581548110610a4e57fe5b90600052602060002090600502016000018054600181600116156101000203166002900480601f016020809104026020016040519081016040528092919081815260200182805460018160011615610100020316600290048015610af35780601f10610ac857610100808354040283529160200191610af3565b820191906000526020600020905b815481529060010190602001808311610ad657829003601f168201915b50505050509050606060018681548110610b0957fe5b90600052602060002090600502016001018054600181600116156101000203166002900480601f016020809104026020016040519081016040528092919081815260200182805460018160011615610100020316600290048015610bae5780601f10610b8357610100808354040283529160200191610bae565b820191906000526020600020905b815481529060010190602001808311610b9157829003601f168201915b50505050509050606060018781548110610bc457fe5b90600052602060002090600502016002018054600181600116156101000203166002900480601f016020809104026020016040519081016040528092919081815260200182805460018160011615610100020316600290048015610c695780601f10610c3e57610100808354040283529160200191610c69565b820191906000526020600020905b815481529060010190602001808311610c4c57829003601f168201915b505050505090508282829550955095505050509193909250565b828054600181600116156101000203166002900490600052602060002090601f016020900481019282601f10610cc457805160ff1916838001178555610cf2565b82800160010185558215610cf2579182015b82811115610cf1578251825591602001919060010190610cd6565b5b509050610cff9190610d03565b5090565b610d2591905b80821115610d21576000816000905550600101610d09565b5090565b9056fea2646970667358221220b1bf2ea180e6fa8ac33fc911ac99919f8cd28dfb5b158052136907b8b8f4529e64736f6c63430006010033",
  "source": "// SPDX-License-Identifier: MIT\r\npragma solidity ^0.6.0;\r\n// pragma experimental ABIEncoderV2;\r\n\r\n// import \"github.com/OpenZeppelin/openzeppelin-contracts/blob/master/contracts/access/Ownable.sol\";\r\n\r\ncontract RegisterUsers {\r\n\r\n    address owner;\r\n\r\n    constructor () public {\r\n        owner = msg.sender;\r\n    }\r\n\r\n    modifier onlyOwner() {\r\n        require(msg.sender == owner, \"You are the owner, not an admin\");\r\n        _;\r\n    }\r\n\r\n\r\n    struct Profile {\r\n        string name;\r\n        string work_address;\r\n        string extra_detail;\r\n        bytes32 password;\r\n        address wallet;\r\n    }\r\n\r\n    Profile[] private users;\r\n    mapping (uint => address) profileToUser;\r\n    mapping (address => uint) userToProfile;\r\n    mapping (address => bool) alreadyRegistered;\r\n\r\n    event newUser(uint id, string name, string work_address, string extra_detail);\r\n    event userDetail(string name, string work_address, string extra_detail);\r\n    modifier checkRegistered(address _check) {\r\n        require(alreadyRegistered[_check] == false, \"You already have an account\");\r\n        _;\r\n    }\r\n\r\n    function addUser(string calldata _name, string calldata _work_address, string calldata _extra_detail,string calldata _passsword)  external checkRegistered(msg.sender) {\r\n        \r\n        bytes32 safepassword = keccak256(abi.encodePacked(_passsword));\r\n        users.push(Profile(_name,_work_address, _extra_detail,safepassword,msg.sender));\r\n        uint id = uint32(users.length - 1);\r\n        profileToUser[id] = msg.sender;\r\n        userToProfile[msg.sender] = id;\r\n        alreadyRegistered[msg.sender] = true;\r\n        emit newUser(id,_name,_work_address,_extra_detail);\r\n    }\r\n    \r\n    // function approveUser(uint _userId) external onlyOwner {\r\n    //     users[_userId].status = true;\r\n    // }\r\n\r\n    function viewUserProfile(uint _userId) public view returns(string memory, string memory,string memory)  {\r\n        // require(msg.sender == users[_userId].wallet);\r\n        string memory _name = users[_userId].name;\r\n        string  memory _workaddress = users[_userId].work_address;\r\n        string memory _extras = users[_userId].extra_detail;\r\n        // users[_userId].photo;\r\n        return(_name,_workaddress,_extras);\r\n    }\r\n\r\n    function userLogin(string calldata _password) external view returns(bool, string memory) {\r\n        \r\n        require(users[userToProfile[msg.sender]].password == keccak256(abi.encodePacked(_password)), \"Wrong password\"); \r\n        return (true, \"User logged in succefully\");\r\n    \r\n    }\r\n}",
  "sourcePath": "D:\\personal_project\\web3part\\blockVilla\\BlockVilla\\contracts\\RegisterUsers.sol",
  "compiler": {
    "name": "solc",
    "version": "0.6.1+commit.e6f7d5a4.Emscripten.clang"
  },
  "schemaVersion": "3.2.5",
  "updatedAt": "2020-11-18T00:27:17.757Z",
  "devdoc": {
    "methods": {}
  },
  "userdoc": {
    "methods": {}
  }
}