{
  "contractName": "RegisterUsers",
  "abi": [
    {
      "inputs": [],
      "stateMutability": "nonpayable",
      "type": "constructor"
    },
    {
      "anonymous": false,
      "inputs": [
        {
          "indexed": false,
          "internalType": "uint256",
          "name": "id",
          "type": "uint256"
        },
        {
          "indexed": false,
          "internalType": "string",
          "name": "name",
          "type": "string"
        },
        {
          "indexed": false,
          "internalType": "string",
          "name": "work_address",
          "type": "string"
        },
        {
          "indexed": false,
          "internalType": "string",
          "name": "extra_detail",
          "type": "string"
        }
      ],
      "name": "newUser",
      "type": "event"
    },
    {
      "inputs": [
        {
          "internalType": "string",
          "name": "_name",
          "type": "string"
        },
        {
          "internalType": "string",
          "name": "_work_address",
          "type": "string"
        },
        {
          "internalType": "string",
          "name": "_extra_detail",
          "type": "string"
        },
        {
          "internalType": "string",
          "name": "_passsword",
          "type": "string"
        },
        {
          "internalType": "uint256",
          "name": "_photo",
          "type": "uint256"
        }
      ],
      "name": "addUser",
      "outputs": [],
      "stateMutability": "nonpayable",
      "type": "function"
    },
    {
      "inputs": [
        {
          "internalType": "uint256",
          "name": "_userId",
          "type": "uint256"
        }
      ],
      "name": "_approveUser",
      "outputs": [],
      "stateMutability": "nonpayable",
      "type": "function"
    },
    {
      "inputs": [
        {
          "internalType": "uint256",
          "name": "_userId",
          "type": "uint256"
        }
      ],
      "name": "_viewUserProfile",
      "outputs": [],
      "stateMutability": "view",
      "type": "function",
      "constant": true
    },
    {
      "inputs": [
        {
          "internalType": "string",
          "name": "_password",
          "type": "string"
        }
      ],
      "name": "_userLogin",
      "outputs": [
        {
          "internalType": "bool",
          "name": "",
          "type": "bool"
        },
        {
          "internalType": "string",
          "name": "",
          "type": "string"
        }
      ],
      "stateMutability": "view",
      "type": "function",
      "constant": true
    }
  ],
  "bytecode": "0x608060405234801561001057600080fd5b50336000806101000a81548173ffffffffffffffffffffffffffffffffffffffff021916908373ffffffffffffffffffffffffffffffffffffffff160217905550610af4806100606000396000f3fe608060405234801561001057600080fd5b506004361061004c5760003560e01c80631615da4f146100515780634df351a41461014e578063dbceeb4f1461017c578063ff41cbf6146101aa575b600080fd5b6100c86004803603602081101561006757600080fd5b810190808035906020019064010000000081111561008457600080fd5b82018360208201111561009657600080fd5b803590602001918460018302840111640100000000831117156100b857600080fd5b909192939192939050505061032c565b604051808315151515815260200180602001828103825283818151815260200191508051906020019080838360005b838110156101125780820151818401526020810190506100f7565b50505050905090810190601f16801561013f5780820380516001836020036101000a031916815260200191505b50935050505060405180910390f35b61017a6004803603602081101561016457600080fd5b8101908080359060200190929190505050610474565b005b6101a86004803603602081101561019257600080fd5b8101908080359060200190929190505050610551565b005b61032a600480360360a08110156101c057600080fd5b81019080803590602001906401000000008111156101dd57600080fd5b8201836020820111156101ef57600080fd5b8035906020019184600183028401116401000000008311171561021157600080fd5b90919293919293908035906020019064010000000081111561023257600080fd5b82018360208201111561024457600080fd5b8035906020019184600183028401116401000000008311171561026657600080fd5b90919293919293908035906020019064010000000081111561028757600080fd5b82018360208201111561029957600080fd5b803590602001918460018302840111640100000000831117156102bb57600080fd5b9091929391929390803590602001906401000000008111156102dc57600080fd5b8201836020820111156102ee57600080fd5b8035906020019184600183028401116401000000008311171561031057600080fd5b90919293919293908035906020019092919050505061064c565b005b600060608383604051602001808383808284378083019250505092505050604051602081830303815290604052805190602001206001600360003373ffffffffffffffffffffffffffffffffffffffff1673ffffffffffffffffffffffffffffffffffffffff16815260200190815260200160002054815481106103ac57fe5b90600052602060002090600602016003015414610431576040517f08c379a000000000000000000000000000000000000000000000000000000000815260040180806020018281038252600e8152602001807f57726f6e672070617373776f726400000000000000000000000000000000000081525060200191505060405180910390fd5b60016040518060400160405280601981526020017f55736572206c6f6767656420696e20737563636566756c6c7900000000000000815250915091509250929050565b6001818154811061048157fe5b906000526020600020906006020160050160009054906101000a900473ffffffffffffffffffffffffffffffffffffffff1673ffffffffffffffffffffffffffffffffffffffff163373ffffffffffffffffffffffffffffffffffffffff16146104ea57600080fd5b600181815481106104f757fe5b9060005260206000209050506001818154811061051057fe5b9060005260206000209050506001818154811061052957fe5b9060005260206000209050506001818154811061054257fe5b90600052602060002090505050565b6000809054906101000a900473ffffffffffffffffffffffffffffffffffffffff1673ffffffffffffffffffffffffffffffffffffffff163373ffffffffffffffffffffffffffffffffffffffff1614610613576040517f08c379a00000000000000000000000000000000000000000000000000000000081526004018080602001828103825260158152602001807f596f7520617265206e6f74207468652061646d696e000000000000000000000081525060200191505060405180910390fd5b600180828154811061062157fe5b906000526020600020906006020160050160146101000a81548160ff02191690831515021790555050565b6000838360405160200180838380828437808301925050509250505060405160208183030381529060405280519060200120905060016040518060e001604052808c8c8080601f016020809104026020016040519081016040528093929190818152602001838380828437600081840152601f19601f8201169050808301925050505050505081526020018a8a8080601f016020809104026020016040519081016040528093929190818152602001838380828437600081840152601f19601f82011690508083019250505050505050815260200188888080601f016020809104026020016040519081016040528093929190818152602001838380828437600081840152601f19601f8201169050808301925050505050505081526020018381526020018481526020013373ffffffffffffffffffffffffffffffffffffffff16815260200160001515815250908060018154018082558091505060019003906000526020600020906006020160009091909190915060008201518160000190805190602001906107df929190610a19565b5060208201518160010190805190602001906107fc929190610a19565b506040820151816002019080519060200190610819929190610a19565b50606082015181600301556080820151816004015560a08201518160050160006101000a81548173ffffffffffffffffffffffffffffffffffffffff021916908373ffffffffffffffffffffffffffffffffffffffff16021790555060c08201518160050160146101000a81548160ff0219169083151502179055505050600060018080549050039050336002600083815260200190815260200160002060006101000a81548173ffffffffffffffffffffffffffffffffffffffff021916908373ffffffffffffffffffffffffffffffffffffffff16021790555080600360003373ffffffffffffffffffffffffffffffffffffffff1673ffffffffffffffffffffffffffffffffffffffff168152602001908152602001600020819055507f0a032906778f4cbbf110ebaf24cfc0aa4eb3317df579313a5e94b5845cfc8c15818c8c8c8c8c8c6040518088815260200180602001806020018060200184810384528a8a82818152602001925080828437600081840152601f19601f8201169050808301925050508481038352888882818152602001925080828437600081840152601f19601f8201169050808301925050508481038252868682818152602001925080828437600081840152601f19601f8201169050808301925050509a505050505050505050505060405180910390a15050505050505050505050565b828054600181600116156101000203166002900490600052602060002090601f016020900481019282601f10610a5a57805160ff1916838001178555610a88565b82800160010185558215610a88579182015b82811115610a87578251825591602001919060010190610a6c565b5b509050610a959190610a99565b5090565b610abb91905b80821115610ab7576000816000905550600101610a9f565b5090565b9056fea2646970667358221220ed2b2ab4436845f3b5b1c261b71e11d88ccdb4bcf76be829e2c56c0068ebf77664736f6c63430006010033",
  "source": "// SPDX-License-Identifier: MIT\r\npragma solidity ^0.6.0;\r\n// pragma experimental ABIEncoderV2;\r\n\r\n// import \"github.com/OpenZeppelin/openzeppelin-contracts/blob/master/contracts/access/Ownable.sol\";\r\n\r\ncontract RegisterUsers {\r\n\r\n    address owner;\r\n\r\n    constructor () public {\r\n        owner = msg.sender;\r\n    }\r\n\r\n    modifier onlyOwner() {\r\n        require(msg.sender == owner, \"You are not the admin\");\r\n        _;\r\n    }\r\n\r\n\r\n    struct Profile {\r\n        string name;\r\n        string work_address;\r\n        string extra_detail;\r\n        bytes32 password;\r\n        uint256 photo;\r\n        address wallet;\r\n        bool status;\r\n    }\r\n\r\n    Profile[] private users;\r\n    mapping (uint => address) profileToUser;\r\n    mapping (address => uint) userToProfile;\r\n\r\n    event newUser(uint id, string name, string work_address, string extra_detail);\r\n\r\n    function addUser(string calldata _name, string calldata _work_address, string calldata _extra_detail,string calldata _passsword,uint256 _photo)  external {\r\n\r\n        bytes32 safepassword = keccak256(abi.encodePacked(_passsword));\r\n        users.push(Profile(_name,_work_address, _extra_detail,safepassword, _photo,msg.sender,false ));\r\n        uint id = users.length - 1;\r\n        profileToUser[id] = msg.sender;\r\n        userToProfile[msg.sender] = id;\r\n        emit newUser(id,_name,_work_address,_extra_detail);\r\n    }\r\n    \r\n    function _approveUser(uint _userId) external onlyOwner {\r\n        users[_userId].status = true;\r\n    }\r\n\r\n    function _viewUserProfile(uint _userId) public view  {\r\n        require(msg.sender == users[_userId].wallet);\r\n        users[_userId].name;\r\n        users[_userId].work_address;\r\n        users[_userId].extra_detail;\r\n        users[_userId].photo;\r\n    }\r\n\r\n    function _userLogin(string calldata _password) external view returns(bool, string memory) {\r\n        \r\n        require(users[userToProfile[msg.sender]].password == keccak256(abi.encodePacked(_password)), \"Wrong password\"); \r\n        return (true, \"User logged in succefully\");\r\n    \r\n    }\r\n}",
  "sourcePath": "D:\\personal_project\\blockVilla\\BlockVilla\\contracts\\RegisterUsers.sol",
  "compiler": {
    "name": "solc",
    "version": "0.6.1+commit.e6f7d5a4.Emscripten.clang"
  },
  "schemaVersion": "3.2.5",
  "updatedAt": "2020-11-15T17:21:54.095Z",
  "networkType": "ethereum",
  "devdoc": {
    "methods": {}
  },
  "userdoc": {
    "methods": {}
  }
}