{
  "contractName": "PropertyRegister",
  "abi": [
    {
      "anonymous": false,
      "inputs": [
        {
          "indexed": false,
          "internalType": "uint256",
          "name": "_id",
          "type": "uint256"
        },
        {
          "indexed": false,
          "internalType": "string",
          "name": "name",
          "type": "string"
        },
        {
          "indexed": false,
          "internalType": "string",
          "name": "location",
          "type": "string"
        },
        {
          "indexed": false,
          "internalType": "uint32",
          "name": "rooms",
          "type": "uint32"
        },
        {
          "indexed": false,
          "internalType": "uint32",
          "name": "bathrooms",
          "type": "uint32"
        },
        {
          "indexed": false,
          "internalType": "uint32",
          "name": "rentOrSale",
          "type": "uint32"
        },
        {
          "indexed": false,
          "internalType": "uint256",
          "name": "price",
          "type": "uint256"
        }
      ],
      "name": "newProperty",
      "type": "event"
    },
    {
      "anonymous": false,
      "inputs": [
        {
          "indexed": false,
          "internalType": "uint256",
          "name": "id",
          "type": "uint256"
        },
        {
          "indexed": false,
          "internalType": "string",
          "name": "name",
          "type": "string"
        },
        {
          "indexed": false,
          "internalType": "string",
          "name": "work_address",
          "type": "string"
        },
        {
          "indexed": false,
          "internalType": "string",
          "name": "extra_detail",
          "type": "string"
        }
      ],
      "name": "newUser",
      "type": "event"
    },
    {
      "anonymous": false,
      "inputs": [
        {
          "indexed": false,
          "internalType": "string",
          "name": "name",
          "type": "string"
        },
        {
          "indexed": false,
          "internalType": "string",
          "name": "work_address",
          "type": "string"
        },
        {
          "indexed": false,
          "internalType": "string",
          "name": "extra_detail",
          "type": "string"
        }
      ],
      "name": "userDetail",
      "type": "event"
    },
    {
      "inputs": [
        {
          "internalType": "string",
          "name": "_name",
          "type": "string"
        },
        {
          "internalType": "string",
          "name": "_work_address",
          "type": "string"
        },
        {
          "internalType": "string",
          "name": "_extra_detail",
          "type": "string"
        },
        {
          "internalType": "string",
          "name": "_passsword",
          "type": "string"
        }
      ],
      "name": "addUser",
      "outputs": [],
      "stateMutability": "nonpayable",
      "type": "function"
    },
    {
      "inputs": [
        {
          "internalType": "string",
          "name": "_password",
          "type": "string"
        }
      ],
      "name": "userLogin",
      "outputs": [
        {
          "internalType": "bool",
          "name": "",
          "type": "bool"
        },
        {
          "internalType": "string",
          "name": "",
          "type": "string"
        }
      ],
      "stateMutability": "view",
      "type": "function"
    },
    {
      "inputs": [
        {
          "internalType": "uint256",
          "name": "_userId",
          "type": "uint256"
        }
      ],
      "name": "viewUserProfile",
      "outputs": [
        {
          "internalType": "string",
          "name": "",
          "type": "string"
        },
        {
          "internalType": "string",
          "name": "",
          "type": "string"
        },
        {
          "internalType": "string",
          "name": "",
          "type": "string"
        }
      ],
      "stateMutability": "view",
      "type": "function"
    },
    {
      "inputs": [
        {
          "internalType": "string",
          "name": "_name",
          "type": "string"
        },
        {
          "internalType": "string",
          "name": "_location",
          "type": "string"
        },
        {
          "internalType": "uint32",
          "name": "_rooms",
          "type": "uint32"
        },
        {
          "internalType": "uint32",
          "name": "_bathrooms",
          "type": "uint32"
        },
        {
          "internalType": "uint32",
          "name": "_rentOrSale",
          "type": "uint32"
        },
        {
          "internalType": "uint256",
          "name": "_price",
          "type": "uint256"
        },
        {
          "internalType": "uint256",
          "name": "_propertyDeed",
          "type": "uint256"
        }
      ],
      "name": "addProperty",
      "outputs": [],
      "stateMutability": "nonpayable",
      "type": "function"
    },
    {
      "inputs": [
        {
          "internalType": "uint256",
          "name": "_propertyId",
          "type": "uint256"
        }
      ],
      "name": "approveProperty",
      "outputs": [
        {
          "internalType": "string",
          "name": "",
          "type": "string"
        },
        {
          "internalType": "string",
          "name": "",
          "type": "string"
        }
      ],
      "stateMutability": "nonpayable",
      "type": "function"
    },
    {
      "inputs": [],
      "name": "numberOfProperties",
      "outputs": [
        {
          "internalType": "uint256",
          "name": "",
          "type": "uint256"
        }
      ],
      "stateMutability": "view",
      "type": "function"
    },
    {
      "inputs": [
        {
          "internalType": "uint256",
          "name": "_id",
          "type": "uint256"
        }
      ],
      "name": "viewProperty",
      "outputs": [
        {
          "internalType": "string",
          "name": "",
          "type": "string"
        },
        {
          "internalType": "string",
          "name": "",
          "type": "string"
        },
        {
          "internalType": "uint32",
          "name": "",
          "type": "uint32"
        },
        {
          "internalType": "uint32",
          "name": "",
          "type": "uint32"
        },
        {
          "internalType": "uint32",
          "name": "",
          "type": "uint32"
        },
        {
          "internalType": "uint256",
          "name": "",
          "type": "uint256"
        }
      ],
      "stateMutability": "view",
      "type": "function"
    }
  ],
  "bytecode": "0x6080604052336000806101000a81548173ffffffffffffffffffffffffffffffffffffffff021916908373ffffffffffffffffffffffffffffffffffffffff160217905550611cb9806100536000396000f3fe608060405234801561001057600080fd5b506004361061007d5760003560e01c8063b01f91bb1161005b578063b01f91bb1461045f578063e9b66f8c1461055c578063f033551e1461066f578063feda0a281461068d5761007d565b806301cda3ac1461008257806317ac0d44146101fa5780632ccc67ff1461030c575b600080fd5b6101f86004803603608081101561009857600080fd5b81019080803590602001906401000000008111156100b557600080fd5b8201836020820111156100c757600080fd5b803590602001918460018302840111640100000000831117156100e957600080fd5b90919293919293908035906020019064010000000081111561010a57600080fd5b82018360208201111561011c57600080fd5b8035906020019184600183028401116401000000008311171561013e57600080fd5b90919293919293908035906020019064010000000081111561015f57600080fd5b82018360208201111561017157600080fd5b8035906020019184600183028401116401000000008311171561019357600080fd5b9091929391929390803590602001906401000000008111156101b457600080fd5b8201836020820111156101c657600080fd5b803590602001918460018302840111640100000000831117156101e857600080fd5b909192939192939050505061080c565b005b61030a600480360360e081101561021057600080fd5b810190808035906020019064010000000081111561022d57600080fd5b82018360208201111561023f57600080fd5b8035906020019184600183028401116401000000008311171561026157600080fd5b90919293919293908035906020019064010000000081111561028257600080fd5b82018360208201111561029457600080fd5b803590602001918460018302840111640100000000831117156102b657600080fd5b9091929391929390803563ffffffff169060200190929190803563ffffffff169060200190929190803563ffffffff1690602001909291908035906020019092919080359060200190929190505050610cc5565b005b6103386004803603602081101561032257600080fd5b8101908080359060200190929190505050611168565b6040518080602001806020018763ffffffff1663ffffffff1681526020018663ffffffff1663ffffffff1681526020018563ffffffff1663ffffffff168152602001848152602001838103835289818151815260200191508051906020019080838360005b838110156103b857808201518184015260208101905061039d565b50505050905090810190601f1680156103e55780820380516001836020036101000a031916815260200191505b50838103825288818151815260200191508051906020019080838360005b8381101561041e578082015181840152602081019050610403565b50505050905090810190601f16801561044b5780820380516001836020036101000a031916815260200191505b509850505050505050505060405180910390f35b6104d66004803603602081101561047557600080fd5b810190808035906020019064010000000081111561049257600080fd5b8201836020820111156104a457600080fd5b803590602001918460018302840111640100000000831117156104c657600080fd5b9091929391929390505050611414565b604051808315151515815260200180602001828103825283818151815260200191508051906020019080838360005b83811015610520578082015181840152602081019050610505565b50505050905090810190601f16801561054d5780820380516001836020036101000a031916815260200191505b50935050505060405180910390f35b6105886004803603602081101561057257600080fd5b810190808035906020019092919050505061155c565b604051808060200180602001838103835285818151815260200191508051906020019080838360005b838110156105cc5780820151818401526020810190506105b1565b50505050905090810190601f1680156105f95780820380516001836020036101000a031916815260200191505b50838103825284818151815260200191508051906020019080838360005b83811015610632578082015181840152602081019050610617565b50505050905090810190601f16801561065f5780820380516001836020036101000a031916815260200191505b5094505050505060405180910390f35b61067761187e565b6040518082815260200191505060405180910390f35b6106b9600480360360208110156106a357600080fd5b8101908080359060200190929190505050611953565b60405180806020018060200180602001848103845287818151815260200191508051906020019080838360005b838110156107015780820151818401526020810190506106e6565b50505050905090810190601f16801561072e5780820380516001836020036101000a031916815260200191505b50848103835286818151815260200191508051906020019080838360005b8381101561076757808201518184015260208101905061074c565b50505050905090810190601f1680156107945780820380516001836020036101000a031916815260200191505b50848103825285818151815260200191508051906020019080838360005b838110156107cd5780820151818401526020810190506107b2565b50505050905090810190601f1680156107fa5780820380516001836020036101000a031916815260200191505b50965050505050505060405180910390f35b3360001515600460008373ffffffffffffffffffffffffffffffffffffffff1673ffffffffffffffffffffffffffffffffffffffff16815260200190815260200160002060009054906101000a900460ff161515146108d3576040517f08c379a000000000000000000000000000000000000000000000000000000000815260040180806020018281038252601b8152602001807f596f7520616c7265616479206861766520616e206163636f756e74000000000081525060200191505060405180910390fd5b6000838360405160200180838380828437808301925050509250505060405160208183030381529060405280519060200120905060016040518060a001604052808c8c8080601f016020809104026020016040519081016040528093929190818152602001838380828437600081840152601f19601f8201169050808301925050505050505081526020018a8a8080601f016020809104026020016040519081016040528093929190818152602001838380828437600081840152601f19601f82011690508083019250505050505050815260200188888080601f016020809104026020016040519081016040528093929190818152602001838380828437600081840152601f19601f8201169050808301925050505050505081526020018381526020013373ffffffffffffffffffffffffffffffffffffffff1681525090806001815401808255809150506001900390600052602060002090600502016000909190919091506000820151816000019080519060200190610a57929190611b9b565b506020820151816001019080519060200190610a74929190611b9b565b506040820151816002019080519060200190610a91929190611b9b565b506060820151816003015560808201518160040160006101000a81548173ffffffffffffffffffffffffffffffffffffffff021916908373ffffffffffffffffffffffffffffffffffffffff16021790555050506000600180805490500363ffffffff169050336002600083815260200190815260200160002060006101000a81548173ffffffffffffffffffffffffffffffffffffffff021916908373ffffffffffffffffffffffffffffffffffffffff16021790555080600360003373ffffffffffffffffffffffffffffffffffffffff1673ffffffffffffffffffffffffffffffffffffffff168152602001908152602001600020819055506001600460003373ffffffffffffffffffffffffffffffffffffffff1673ffffffffffffffffffffffffffffffffffffffff16815260200190815260200160002060006101000a81548160ff0219169083151502179055507f0a032906778f4cbbf110ebaf24cfc0aa4eb3317df579313a5e94b5845cfc8c15818c8c8c8c8c8c6040518088815260200180602001806020018060200184810384528a8a82818152602001925080828437600081840152601f19601f8201169050808301925050508481038352888882818152602001925080828437600081840152601f19601f8201169050808301925050508481038252868682818152602001925080828437600081840152601f19601f8201169050808301925050509a505050505050505050505060405180910390a15050505050505050505050565b60011515600460003373ffffffffffffffffffffffffffffffffffffffff1673ffffffffffffffffffffffffffffffffffffffff16815260200190815260200160002060009054906101000a900460ff16151514610d6e576040517f08c379a0000000000000000000000000000000000000000000000000000000008152600401808060200182810382526022815260200180611c416022913960400191505060405180910390fd5b60056040518061012001604052808b8b8080601f016020809104026020016040519081016040528093929190818152602001838380828437600081840152601f19601f82011690508083019250505050505050815260200189898080601f016020809104026020016040519081016040528093929190818152602001838380828437600081840152601f19601f8201169050808301925050505050505081526020018763ffffffff1681526020018663ffffffff1681526020018563ffffffff1681526020018481526020018381526020013373ffffffffffffffffffffffffffffffffffffffff16815260200160006003811115610e6957fe5b81525090806001815401808255809150506001900390600052602060002090600602016000909190919091506000820151816000019080519060200190610eb1929190611b9b565b506020820151816001019080519060200190610ece929190611b9b565b5060408201518160020160006101000a81548163ffffffff021916908363ffffffff16021790555060608201518160020160046101000a81548163ffffffff021916908363ffffffff16021790555060808201518160020160086101000a81548163ffffffff021916908363ffffffff16021790555060a0820151816003015560c0820151816004015560e08201518160050160006101000a81548173ffffffffffffffffffffffffffffffffffffffff021916908373ffffffffffffffffffffffffffffffffffffffff1602179055506101008201518160050160146101000a81548160ff02191690836003811115610fc457fe5b0217905550505060006001600580549050039050336006600083815260200190815260200160002060006101000a81548173ffffffffffffffffffffffffffffffffffffffff021916908373ffffffffffffffffffffffffffffffffffffffff160217905550600760003373ffffffffffffffffffffffffffffffffffffffff1673ffffffffffffffffffffffffffffffffffffffff168152602001908152602001600020600081548092919060010191905055507fa9acbd459c69f8a127c3167126c564ac125309ace244f2e16a50e9a737b84d90818b8b8b8b8b8b8b8b604051808a815260200180602001806020018763ffffffff1663ffffffff1681526020018663ffffffff1663ffffffff1681526020018563ffffffff1663ffffffff16815260200184815260200183810383528b8b82818152602001925080828437600081840152601f19601f8201169050808301925050508381038252898982818152602001925080828437600081840152601f19601f8201169050808301925050509b50505050505050505050505060405180910390a150505050505050505050565b6060806000806000806001600381111561117e57fe5b6005888154811061118b57fe5b906000526020600020906006020160050160149054906101000a900460ff1660038111156111b557fe5b141561140a576060600588815481106111ca57fe5b90600052602060002090600602016000018054600181600116156101000203166002900480601f01602080910402602001604051908101604052809291908181526020018280546001816001161561010002031660029004801561126f5780601f106112445761010080835404028352916020019161126f565b820191906000526020600020905b81548152906001019060200180831161125257829003601f168201915b5050505050905060606005898154811061128557fe5b90600052602060002090600602016001018054600181600116156101000203166002900480601f01602080910402602001604051908101604052809291908181526020018280546001816001161561010002031660029004801561132a5780601f106112ff5761010080835404028352916020019161132a565b820191906000526020600020905b81548152906001019060200180831161130d57829003601f168201915b50505050509050600060058a8154811061134057fe5b906000526020600020906006020160020160009054906101000a900463ffffffff169050600060058b8154811061137357fe5b906000526020600020906006020160020160049054906101000a900463ffffffff169050600060058c815481106113a657fe5b906000526020600020906006020160020160089054906101000a900463ffffffff169050600060058d815481106113d957fe5b90600052602060002090600602016003015490508585858585859b509b509b509b509b509b5050505050505061140b565b5b91939550919395565b600060608383604051602001808383808284378083019250505092505050604051602081830303815290604052805190602001206001600360003373ffffffffffffffffffffffffffffffffffffffff1673ffffffffffffffffffffffffffffffffffffffff168152602001908152602001600020548154811061149457fe5b90600052602060002090600502016003015414611519576040517f08c379a000000000000000000000000000000000000000000000000000000000815260040180806020018281038252600e8152602001807f57726f6e672070617373776f726400000000000000000000000000000000000081525060200191505060405180910390fd5b60016040518060400160405280601981526020017f55736572206c6f6767656420696e20737563636566756c6c7900000000000000815250915091509250929050565b6060806000809054906101000a900473ffffffffffffffffffffffffffffffffffffffff1673ffffffffffffffffffffffffffffffffffffffff163373ffffffffffffffffffffffffffffffffffffffff1614611621576040517f08c379a000000000000000000000000000000000000000000000000000000000815260040180806020018281038252601f8152602001807f596f752061726520746865206f776e65722c206e6f7420616e2061646d696e0081525060200191505060405180910390fd5b6000600381111561162e57fe5b6005848154811061163b57fe5b906000526020600020906006020160050160149054906101000a900460ff16600381111561166557fe5b146116bb576040517f08c379a0000000000000000000000000000000000000000000000000000000008152600401808060200182810382526021815260200180611c636021913960400191505060405180910390fd5b6001600584815481106116ca57fe5b906000526020600020906006020160050160146101000a81548160ff021916908360038111156116f657fe5b021790555060606005848154811061170a57fe5b90600052602060002090600602016000018054600181600116156101000203166002900480601f0160208091040260200160405190810160405280929190818152602001828054600181600116156101000203166002900480156117af5780601f10611784576101008083540402835291602001916117af565b820191906000526020600020905b81548152906001019060200180831161179257829003601f168201915b505050505090506060600585815481106117c557fe5b90600052602060002090600602016001018054600181600116156101000203166002900480601f01602080910402602001604051908101604052809291908181526020018280546001816001161561010002031660029004801561186a5780601f1061183f5761010080835404028352916020019161186a565b820191906000526020600020905b81548152906001019060200180831161184d57829003601f168201915b505050505090508181935093505050915091565b60008060009054906101000a900473ffffffffffffffffffffffffffffffffffffffff1673ffffffffffffffffffffffffffffffffffffffff163373ffffffffffffffffffffffffffffffffffffffff1614611942576040517f08c379a000000000000000000000000000000000000000000000000000000000815260040180806020018281038252601f8152602001807f596f752061726520746865206f776e65722c206e6f7420616e2061646d696e0081525060200191505060405180910390fd5b600060058054905090508091505090565b6060806060806001858154811061196657fe5b90600052602060002090600502016000018054600181600116156101000203166002900480601f016020809104026020016040519081016040528092919081815260200182805460018160011615610100020316600290048015611a0b5780601f106119e057610100808354040283529160200191611a0b565b820191906000526020600020905b8154815290600101906020018083116119ee57829003601f168201915b50505050509050606060018681548110611a2157fe5b90600052602060002090600502016001018054600181600116156101000203166002900480601f016020809104026020016040519081016040528092919081815260200182805460018160011615610100020316600290048015611ac65780601f10611a9b57610100808354040283529160200191611ac6565b820191906000526020600020905b815481529060010190602001808311611aa957829003601f168201915b50505050509050606060018781548110611adc57fe5b90600052602060002090600502016002018054600181600116156101000203166002900480601f016020809104026020016040519081016040528092919081815260200182805460018160011615610100020316600290048015611b815780601f10611b5657610100808354040283529160200191611b81565b820191906000526020600020905b815481529060010190602001808311611b6457829003601f168201915b505050505090508282829550955095505050509193909250565b828054600181600116156101000203166002900490600052602060002090601f016020900481019282601f10611bdc57805160ff1916838001178555611c0a565b82800160010185558215611c0a579182015b82811115611c09578251825591602001919060010190611bee565b5b509050611c179190611c1b565b5090565b611c3d91905b80821115611c39576000816000905550600101611c21565b5090565b9056fe506c65617365207265677374657220696e746f206f75722073697465206669727374546869732070726f706572747920697320616c726561647920617070726f766564a264697066735822122090f824f51b164f8078e49d7f682ee8abe75fe1520c68555b1051e3a6f2cf8de164736f6c63430006010033",
  "source": "// SPDX-License-Identifier: MIT\r\npragma solidity ^0.6.0;\r\n// pragma experimental ABIEncoderV2;\r\n\r\nimport './RegisterUsers.sol';\r\n\r\ncontract PropertyRegister is RegisterUsers  {    \r\n   \r\n   enum SaleStatus{ pendingApproval, onSale, pendingSale, sold }\r\n   \r\n   struct Property{\r\n       string name;\r\n       string location;\r\n       uint32 rooms;\r\n       uint32 bathrooms;\r\n       uint32 rentOrSale;\r\n       uint256 price;\r\n       uint256 propertyDeed;\r\n       address ownedBy;\r\n       SaleStatus status;\r\n\r\n   }\r\n\r\n   modifier usersOnly() {\r\n       require(alreadyRegistered[msg.sender] == true, \"Please regster into our site first\");\r\n       _;\r\n   }  \r\n\r\n    modifier aleadyOnSite() {\r\n       require(alreadyRegistered[msg.sender] == true, \"Please regster into our site first\");\r\n       _;\r\n   } \r\n\r\n   Property[]  properties;\r\n\r\n   mapping (uint => address) propertyToOwner;\r\n   mapping (address => uint) propertyCount;\r\n   \r\n   event newProperty(uint _id, string name, string location,uint32 rooms, uint32 bathrooms, uint32 rentOrSale, uint256 price);\r\n\r\n   function addProperty(string calldata _name, string calldata _location,uint32  _rooms, uint32 _bathrooms, uint32 _rentOrSale, uint256 _price, uint256 _propertyDeed) external usersOnly {\r\n\r\n       properties.push(Property(_name, _location,_rooms, _bathrooms, _rentOrSale, _price,_propertyDeed,msg.sender, SaleStatus.pendingApproval ));\r\n       uint id = properties.length - 1;\r\n       propertyToOwner[id] = msg.sender;\r\n       propertyCount[msg.sender] ++;\r\n       emit newProperty(id, _name, _location, _rooms, _bathrooms, _rentOrSale, _price);\r\n\r\n   }\r\n\r\n    function approveProperty(uint _propertyId) external onlyOwner returns(string memory, string memory ) {\r\n        \r\n        require(properties[_propertyId].status == SaleStatus.pendingApproval, \"This property is already approved\");\r\n        properties[_propertyId].status = SaleStatus.onSale;\r\n        string memory name = properties[_propertyId].name;\r\n        string memory locatedAt = properties[_propertyId].location;\r\n        return(name, locatedAt) ;\r\n    }\r\n\r\n    function numberOfProperties() external onlyOwner view returns(uint) {\r\n        uint number = properties.length;\r\n        return number;\r\n    }\r\n    \r\n    function viewProperty(uint _id) view public returns(string memory,string memory, uint32,uint32,uint32,uint256) {\r\n        \r\n          if (properties[_id].status == SaleStatus.onSale) {\r\n            \r\n            string memory name = properties[_id].name;\r\n            string memory locatedAt = properties[_id].location;\r\n            uint32 roomNo =properties[_id].rooms;\r\n            uint32 bath = properties[_id].bathrooms;\r\n            uint32 forRentOrSale = properties[_id].rentOrSale;\r\n            uint256 pricing = properties[_id].price;\r\n            return (name, locatedAt, roomNo, bath, forRentOrSale,pricing);\r\n          } \r\n          \r\n          \r\n        \r\n    }\r\n    \r\n    \r\n\r\n\r\n}",
  "sourcePath": "D:\\personal_project\\web3part\\blockVilla\\BlockVilla\\contracts\\PropertyRegister.sol",
  "compiler": {
    "name": "solc",
    "version": "0.6.1+commit.e6f7d5a4.Emscripten.clang"
  },
  "schemaVersion": "3.2.5",
  "updatedAt": "2020-11-18T00:27:17.732Z",
  "devdoc": {
    "methods": {}
  },
  "userdoc": {
    "methods": {}
  }
}